:100000000C94F2060C9439070C9439070C94EF2FDA
:100010000C9439070C9439070C9439070C94390760
:100020000C9439070C9439070C94171B0C94D31AB1
:100030000C94BD280C9439070C9439070C9439079B
:100040000C9439070C9439070C9439070C94390730
:100050000C9439070C94F01B0C9439070C94390755
:100060000C9439070C9439070C9439070C94390710
:100070000C9439070C9439070C9439070C94390700
:100080000C9439070C9439070C9439070C943907F0
:100090000C9439070C9439070C9439070C943907E0
:1000A0000C9439070C9439070C94390700050105A5
:1000B0000205030504050505000601060206030600
:1000C00004060506000701070207030704070507E2
:1000D00000080108020803080408050800090109CE
:1000E00002090309040905090000010002000300D8
:1000F00004000500000101010201030104010501E2
:1001000000020102020203020402050200030103CD
:1001100002030303040305030004010402040304AF
:100120000404050435001E001F00200021002200E9
:100130002B4614001A00080015001700E000040008
:100140001600070009000A00E1001D001B00060060
:10015000190005000100E300E200A95D2C00A800E1
:100160002D00270026002500240023472A00130025
:1001700012000C0018001C00340033000F000E00A9
:100180000D000B00E50038003700360010001100AC
:10019000010001000100AA5D2800AC5D01001E0005
:1001A0001F00200021002200010014001A00090095
:1001B00013000A00010004001500160017000700D4
:1001C00001001D001B0006001900050001000100D0
:1001D00001000100010001000100270026002500A8
:1001E00024002347010033001C0018000F000D00FD
:1001F000010012000C00080011000B000100380083
:100200003700360010000E0001000100010001005F
:100210000100010001001E001F002000210022003B
:10022000010014001A000900130005000100040079
:100230001500160017000A0001001D001B00060033
:100240000700190001000100010001000100010088
:100250000100270026002500240023470100330069
:100260001C0018000F000D00010012000C00080017
:100270001100100001003800370036000B000E009E
:1002800001000100010001000100010029003A0005
:100290003B003C003D003E00390000000000000033
:1002A000000000000100000000000000000000004D
:1002B000010000000000000000000000010001003B
:1002C0000100010001000100440043004200410020
:1002D00040003F004500000000000000000000005A
:1002E0004C0000004F0000005200000046000000DB
:1002F00000004F005100500001000100010001000A
:1003000001000100010001000100010001000100E5
:100310000100490046006500000000000100E20005
:10032000E000E1000000390001007A007B007C0061
:100330007D0000000100010001000100010001003A
:100340000100010001000100010001002A00270254
:1003500026022502240223023500310230022F0238
:100360002E002D003502310030002F002E022D020C
:10037000010001000100010001000100DF5C00003C
:100380000000000000000000005C00000000000011
:1003900000000000C35CC65CC85CCA5CA85DA75DC9
:1003A000C45CC75CC95CCB5C0000A65D01000100B9
:1003B000010001000100000000000000000000003A
:1003C000000000000000000000000000000000002D
:1003D000000000004F09000000005009000000006C
:1003E000AB00AE00AC000000010001000100010004
:1003F00001000000010000000000000000000000FB
:1004000000000000000000000000000000000000EC
:1004100000000000000000000000000000000000DC
:10042000000000000100075501000100010001006B
:100430000000000000000000530001000000250241
:10044000610060005F00230231022E005E005D004B
:100450005C002D00010038005B005A0059002E029C
:1004600001006300620001000100010001000000C2
:1004700000000000000000001050115012501350F6
:100480001450155000000000BD00000000000000E6
:10049000A6000000000000000000000000000000B6
:1004A000000000000000000000000000000000004C
:1004B00000000000005C000000000000000016507A
:1004C000DF5C0000000000000000000000000000F1
:1004D000000000000000000000000000000000001C
:1004E0000000000000DA0281FFD9F1DB20A4A62E73
:1004F000AF00A0C000A1C800AED580A81FD30040A7
:100500008D14200000047F3F1F643214643214787D
:100510003C1E1E140A05556E6465660053776974A7
:100520000A004E756D700A0041646A0A004C6F77CC
:10053000657200526169736500426173650A004C1F
:1005400041594552000A0A00556E64656600436DC4
:100550006B444800436C6D6B00517772740000442B
:10056000616E650A4576616E73000A0A00808182B9
:10057000838485868788898A8B8C8D8E8F909192D3
:100580009394A0A1A2A3A4A5A6A7A8A9AAABACAD29
:10059000AEAFB0B1B2B3B4C0C1C2C3C4C5C6C7C8A0
:1005A000C9CACBCCCDCECFD0D1D2D3D4000001019B
:1005B0000101010101010102020202020202020222
:1005C00003030303030303030404040404040405F2
:1005D00005050505060606060607070707070808B6
:1005E0000808090909090A0A0A0B0B0B0C0C0C0D67
:1005F0000D0D0E0E0E0F0F0F101011111112121300
:10060000131414151516161717181819191A1A1B7A
:100610001B1C1D1D1E1E1F202021222223242425D9
:100620002626272829292A2B2C2D2D2E2F30313212
:1006300032333435363738393A3B3C3D3E3F404122
:1006400042434445464748494A4C4D4E4F5051530A
:1006500054555658595A5B5D5E5F616264656668C1
:10066000696B6C6D6F7072737577787A7B7D7E8045
:1006700082838587888A8C8E8F91939596989A9C91
:100680009EA0A2A3A5A7A9ABADAFB1B3B5B7BABCA5
:10069000BEC0C2C4C6C9CBCDCFD1D4D6D8DBDDDF76
:1006A000E2E4E7E9EBEEF0F3F5F8FAFDFFFFAA7FED
:1006B00055402223252628292A2C2D2F3032333548
:1006C00036383A3B3D3E4042434547494A4C4E50FE
:1006D00051535557595A5C5E6062646668696B6D28
:1006E0006F71737577797B7D7F81838587898A8C2C
:1006F0008E90929496989A9C9E9FA1A3A5A7A8AA33
:10070000ACAEAFB1B3B4B6B8B9BBBCBEBFC1C2C367
:10071000C5C6C7C9CACBCCCDCED0D1D2D2D3D4D501
:10072000D6D7D7D8D9D9DADADBDBDBDCDCDCDCDC2A
:10073000DDDDDDDDDCDCDCDCDCDBDBDBDADAD9D902
:10074000D8D7D7D6D5D4D3D2D2D1D0CECDCCCBCA90
:10075000C9C7C6C5C3C2C1BFBEBCBBB9B8B6B4B3B6
:10076000B1AFAEACAAA8A7A5A3A19F9E9C9A98964C
:100770009492908E8C8A89878583817F7D7B79771F
:100780007573716F6D6B6968666462605E5C5A59FF
:1007900057555351504E4C4A4947454342403E3DC0
:1007A0003B3A3836353332302F2D2C2A292826254E
:1007B000232200AF00AE05010980A10185031901C4
:1007C0002AB700150126B700950175108100C005F4
:1007D0000C0901A101850419012AA002150126A016
:1007E00002950175108100C005010906A1010507E8
:1007F00019E029E715002501950875018102950189
:10080000750881010507190029FF150026FF0095CD
:1008100006750881000508190129059505750191DE
:1008200002950175039101C009023B00020100A07D
:10083000FA0904000001030101000921110100016E
:100840002240000705810308000A09040100010392
:100850000000000921110100012232000705820376
:1008600020000A120100020000000832FC87020189
:1008700000010200010C0353006F0066006C00656C
:100880000000001A034A006F007300650066004113
:1008900000640061006D00630069006B00000004EB
:1008A00003090407087F0807003E5B4F5B3E003EDC
:1008B0006B4F6B3E001C3E7C3E1C00183C7E3C187F
:1008C000001C577D571C001C5E7F5E1C0000183CFE
:1008D000180000FFE7C3E7FF00001824180000FF1E
:1008E000E7DBE7FF0030483A060E00262979292683
:1008F00000407F05050700407F05253F005A3CE783
:100900003C5A007F3E1C1C0800081C1C3E7F001443
:10091000227F2214005F5F005F5F0006097F017F76
:1009200000006689956A0060606060600094A2FFC4
:10093000A2940008047E04080010207E2010000805
:10094000082A1C0800081C2A0808001E1010101095
:10095000000C1E0C1E0C0030383E383000060E3ED7
:100960000E060000000000000000005F0000000014
:100970000700070000147F147F1400242A7F2A1226
:10098000002313086462003649562050000008070F
:10099000030000001C224100000041221C00002A2C
:1009A0001C7F1C2A0008083E0808000080703000E8
:1009B0000008080808080000006060000020100817
:1009C0000402003E5149453E0000427F4000007253
:1009D00049494946002141494D33001814127F10FE
:1009E000002745454539003C4A494931004121111C
:1009F000090700364949493600464949291E000081
:100A000000140000000040340000000008142241DF
:100A10000014141414140000412214080002015997
:100A20000906003E415D594E007C1211127C007F88
:100A300049494936003E41414122007F4141413E02
:100A4000007F49494941007F09090901003E4141B0
:100A50005173007F0808087F0000417F410000209B
:100A600040413F01007F08142241007F4040404048
:100A7000007F021C027F007F0408107F003E41417E
:100A8000413E007F09090906003E4151215E007F79
:100A9000091929460026494949320003017F01030B
:100AA000003F4040403F001F2040201F003F403893
:100AB000403F0063140814630003047804030061DA
:100AC00059494D4300007F41414100020408102074
:100AD00000004141417F0004020102040040404007
:100AE0004040000003070800002054547840007F75
:100AF0002844443800384444442800384444287F7B
:100B00000038545454180000087E09020018A4A4A8
:100B10009C78007F080404780000447D4000002099
:100B200040403D00007F102844000000417F40000D
:100B3000007C04780478007C08040478003844447D
:100B4000443800FC182424180018242418FC007CC5
:100B5000080404080048545454240004043F442466
:100B6000003C4040207C001C2040201C003C4030C9
:100B7000403C004428102844004C9090907C004455
:100B800064544C4400000836410000000077000027
:100B9000000041360800000201020402003C262346
:100BA000263C00000000000000404040F0F8F8FF44
:100BB00038FFF8F83FF8F8FF38FFF8F8F040404009
:100BC00000000000000080C0C0C0800000C0C080E5
:100BD00000000080C0C000C0C0000080C0C0000095
:100BE000000000C0C0C0C0C000C0C00000000000C5
:100BF00000000000000000000000000000000000F5
:100C000000000000000000000000000000000000E4
:100C100000000000000000000000000000000000D4
:100C20000000C0F0F8FC3E1E06010000007F4141BC
:100C3000417F007F4141417F000080C0E07E5B4FEB
:100C40005BFEC00000C000DCD7DEDEDED7DC00C00B
:100C50000000000000000000000000000000000094
:100C6000000000000000000000494949FFFFFFFFAD
:100C7000E0DFBFBF00BFBFDFE0FFFFFFFF49494923
:100C800000000000001F3F6060E0BF1F007F7F0783
:100C90001E381E077F7F007F7F0E1F3B71600000A4
:100CA0000000007F7F0C0C0C007E7E007F7E030323
:100CB000007F7E03037E7E03037F7E000F3E703C39
:100CC000063C703E0F00327B49493F7E007F7E0329
:100CD00003001E3F69696F2600000000000000004D
:100CE0000000030F1F3F3C7870600000007F41410F
:100CF000417F007F4141417F00307B7F7830202061
:100D000030787F3B0003000F7F0F0F0F7F0F000332
:100D100000000000000000000000000000000000D3
:100D2000000000000000000000010101070F0F7F1C
:100D30000F7F0F0F7E0F0F7F0F7F0F0F0701010136
:100D400000000000000000000000010100000000A1
:100D50000000000000000000000000000000000093
:100D60000000000000000000000000000000000083
:100D70000000000000000000000000000000000073
:100D80000000000000000000000000000000000063
:100D90000000000000000000000000000000000053
:100DA0000000000000000000000000000000000043
:100DB0000000000000000000000000000000000033
:100DC0000000000000000000000000000000000023
:100DD0000000000000000000000000000000000013
:100DE0000000000011241FBECFEFDAE0DEBFCDBF50
:100DF00004B603FE27C08091170690911806A091B3
:100E00001906B0911A068730904BA740B04BD1F429
:100E100010921706109218061092190610921A06D0
:100E200014BE84B7877F84BF0FB6F894A8958091CD
:100E30006000886180936000109260000FBEE0E067
:100E4000F8E3099511E0A0E0B1E0E8E6F5E602C0BC
:100E500005900D92A63EB107D9F726E0A6EEB1E0C7
:100E600001C01D92A731B207E1F70E94E4280C945B
:100E700078320C940000E8EDF0E080818E7F808372
:100E80001092E2001092DA001092E100A0EEB0E0C1
:100E90008C9181608C9380818F77808319BCA7EDC2
:100EA000B0E08C918E7F8C9380818F7E80831092B6
:100EB000EE0308952091E4003091E50095E6A90144
:100EC0002091EC00822F817020FF06C08091E80005
:100ED00080FF06C080E008952091E80022FD1AC03E
:100EE0008091FB03882389F0853089F08091EB00A5
:100EF00085FD0FC02091E4003091E50042175307B3
:100F0000F9F29150E1F684E0089582E0089583E0DB
:100F1000089581E00895EF92FF920F931F93CF936E
:100F20007C018B010E945A07C82F811117C0809144
:100F3000E80085FD0BC08091E8008E778093E80083
:100F40000E945A07882399F3C82F08C0F70181919E
:100F50007F018093F1000150110949F78C2FCF9147
:100F60001F910F91FF90EF9008958091FD0387FFEF
:100F700013C08091E80082FF06C08091E8008B7763
:100F80008093E80004C08091FB038111F2CF0895A3
:100F90008091FB038823D9F38091E80080FFF8CF8C
:100FA0008091E8008E77ECCF982F9093E900242F62
:100FB000762F50E0891731F07091EC002091ED0010
:100FC0005091F00021FD07C09F5F973071F780932B
:100FD000E90081E008953091EB003E7F3093EB0013
:100FE0003091ED003D7F3093ED003091EB003160AA
:100FF0003093EB007093EC002093ED005093F000E1
:101000002091EE0027FDE0CF80E00895CF92DF929F
:10101000EF92FF920F931F93CF93DF93C8EDD0E031
:1010200088818F7E8883E7EDF0E080818160808316
:1010300084E082BF81E08093EE0388818E7F888385
:1010400002EE10E0F80110821092DA0081EEC82E54
:10105000D12CF601108288818F77888388818068FF
:10106000888388818F7D888319BC1092FB0310923E
:10107000FC031092FA031092F90390EEE92EF12C82
:10108000F70180818B7F808388818160888342E043
:1010900060E080E00E94D407F60180818E7F80832B
:1010A000F801808181608083808188608083F7017E
:1010B00080818E7F8083888180618883DF91CF915A
:1010C0001F910F91FF90EF90DF90CF900895FC015A
:1010D000809103049091040486179707A0F061158E
:1010E000710529F49091E8009E779093E80090E0D4
:1010F0006115710551F4911108C08091E80082FFDB
:1011000034C080E00895BC01F2CF8091FB038823B6
:10111000C1F18530C1F18091E80083FD30C080913C
:10112000E80082FDEACF8091E80080FFE1CF809166
:10113000F3002091F200382F6115710519F0283065
:10114000310558F091E02830310509F090E0209108
:10115000E8002E772093E800CBCF81918093F100B7
:10116000615071092F5F3F4FE7CF8091FB038823C8
:1011700041F0853041F08091E80083FFBECF81E0EF
:10118000089582E0089583E00895089508950895EC
:101190008091F00308952FB7F8946091E703709160
:1011A000E8038091E9039091EA032FBF08959C0121
:1011B000FC0132969FEF80E04191461751F09F3F2E
:1011C00019F4411101C0982F8F5F8630A9F79F3F16
:1011D00009F40895290F311D97FD3A95F9016283AD
:1011E00008952091E4033091E5032817390771F041
:1011F0009093E5038093E403E091E203F091E3032D
:10120000309721F00084F185E02D09940895209114
:10121000E0033091E1032817390771F09093E1035F
:101220008093E003E091E203F091E303309721F033
:101230000680F781E02D09940895FC01680F791F5D
:101240008FEF91E32191822728E030E087FF09C0EA
:10125000880F892721503109C9F7E617F70791F759
:101260000895880FF7CFFA01811101C0FB0109949D
:10127000ECEFF2E011828281846082830895809194
:10128000D503982F9E7F61F4817082608093D5038F
:101290008091D803893718F088E78093D8030895A0
:1012A0008A34B0F381708864F1CFAF92BF92DF923D
:1012B000EF92FF920F931F93CF93DF93182F062F78
:1012C000E901493708F048E7E42FF0E0E355FA4F29
:1012D000011110C0E4915E2F4E2F4983E8835A8399
:1012E000DF91CF911F910F91FF90EF90DF90BF9012
:1012F000AF900895202F30E04491D42EE42EF12CAD
:1013000056E0159FC0011124EFEFF0E0BF010E94ED
:101310006931812F90E0880F991F55E5569FD001C4
:10132000579FB00D11248A1B9B0B982F990F890F83
:101330005F01A21AB30AAE9CD001AF9CB00DBE9C57
:10134000B00D11245B2F089F80011124012F11275C
:101350005F01A01AB10AAE9C8001AF9C100DBE9C2B
:10136000100D11245F01A81AB108A29EC001A39E0E
:10137000900DB29E900D1124892F9927E81BF90B2F
:10138000EE9DC001EF9D900DFE9D900D1124E92F63
:1013900062307105A1F050F46115710509F49DCF1B
:1013A0006130710581F0EB2F512F97CF64307105BB
:1013B00069F080F06630710509F48FCFF4CFE42F27
:1013C0004B2F592F8ACFE42F412F87CFEB2F542F4C
:1013D000492F83CF4B2F5D2DE12F7FCF80E00895E4
:1013E00078940895F894E82FE295EF70F0E031A139
:1013F000282F2F7081E090E001C0880F2A95EAF72E
:10140000982F9095932391A392A1892B82A30C945A
:10141000F00990919E0292FF06C0282F2871283073
:10142000F9F4877F846093FF06C0282F2871283144
:10143000F1F4877E846120919F0220FF06C0382F3F
:1014400038713830D9F4877F816021FF06C0282F9A
:1014500028712831D1F4877E816194FD877E0895BB
:10146000282F24712430F9F68B7F8860DCCF282F59
:101470002471243101F78B7E8861DDCF382F3171E3
:10148000313019F78E7F8860E0CF282F217121310C
:1014900021F78E7E8861E1CFCF93DF93EC01823814
:1014A0009105A9F1D8F58133910509F496C048F565
:1014B0008932910509F48AC08A9709F495C0C1154B
:1014C00022E5D20708F0B6C0C11531E5D30708F010
:1014D00029C1C83ED10508F09CC0C03ED10560F5C9
:1014E000C83AD10508F087C0C53AD10508F0F2C066
:1014F000C130D10509F12097F9F0C430D105E0F4ED
:1015000040C08533910509F45AC0C997C1F680914E
:101510009E02837089F0C0EED0E00EC0833E91053C
:1015200099F170F4803E910501F1823E910539F602
:1015300080919E0282FD21C0CE01DF91CF9108955E
:10154000863E910561F1873E910571F1843E9105DA
:1015500009F0B5CF80919F0281FFEECF80919E026E
:10156000C7EED0E084FD0DC0E7CF80919E0280FDE4
:101570000FC190919F0290FFDFCFC3EED0E084FFB8
:10158000DBCFD0E0C0E0D8CF80919E0282FD03C1C6
:1015900090919F0290FDBFCF84FFCECFF2CF80917C
:1015A0009E0283FDDDCFC8CF80919E0283FDF6C0F1
:1015B00090919F0291FFF0CFC4EED0E0BDCF80911B
:1015C0009E0285FFB9CFC9E2D0E0B6CF80919E02DE
:1015D00085FFB2CFC5E3D0E0AFCF80919E0286FFFA
:1015E000ABCFCAE2D0E0A8CF80919E0286FFA4CF05
:1015F000C1E3D0E0A1CFCF3BD10518F6C85AD0E067
:10160000CC0FDD1FC759DE4F0990D881C02DD4649F
:1016100093CFC11540E5D40708F067C0C11580E439
:10162000D80708F05FC0CE019A9581159F4108F454
:1016300083CFA7CFC11536E5D30718F5C11545E50A
:10164000D40708F087C0C11584E5D80708F07DC02D
:101650009C2F969596959E0123703327C115D345EF
:1016600008F465C0C1E0D0E002C0CC0FDD1F2A95B0
:10167000E2F730E2939FC0011124C82BD92BDA681E
:101680005BCFC11589E5D80768F4C11598E5D9077E
:1016900008F06BC0C11527E5D20708F072CFDD272F
:1016A000D0664ACFC1153AE5D30708F463C0CE012E
:1016B00090568115904208F064CF8D2F8F710E9453
:1016C000090A90E0982F882788279F719C012C2B6E
:1016D000E90149C0C55AD0E0CA59DE4FC881D0E0FF
:1016E000D0642ACFDF70D06A27CFCE01E4E0969590
:1016F0008795EA95E1F783702C2F26952695237020
:1017000090E2299F90011124382B8C2F8370C1E027
:10171000D0E002C0CC0FDD1F8A95E2F7C22BD32B9D
:10172000DC680ACFDC2FCC27C16FD06A05CFC1E0BF
:10173000D0E002C0CC0FDD1F2A95E2F720E2929F95
:10174000C0011124C82BD92BEBCFDC2FCC27C46FC1
:10175000D06AF2CE8C2F0E94090AC82FD0E0DC2F6D
:10176000CC27CC27DF71D062E7CEDC2FCC27C06F2F
:10177000D06AE2CE8C2F8F700E94090A34E0D69591
:10178000C7953A95E1F7CF709C2FEC01D069D4CE84
:10179000C9E3D0E0D1CEC2EED0E0CECEC6EED0E0EE
:1017A000CBCE0C94CB08809163028111109263021E
:1017B0000895809590916202982390936202089513
:1017C0008091620290916102892B90916002892B35
:1017D0008093E80190916302992391F0892B809383
:1017E000E80120E08AEE91E0FC013191CF01311156
:1017F0002F5FF1E0803F9F07B9F721110E94D30BC3
:10180000E091E203F091E303309731F00280F3813D
:10181000E02D88EE91E00994089580915E02909108
:101820002D02981301C008958F5F8770FACFAF9291
:10183000BF92CF92DF92EF92FF920F931F93CF93BD
:10184000DF93C0900804D0900904E0900A04F0905F
:101850000B044091C2025091C3026091C402709186
:10186000C502C42AD52AE62AF72ACFE1D0E0082FFC
:1018700010E026E0929F000D111D11249CE3A92E7B
:10188000BC2ED701C6010C2E04C0B695A79597951E
:1018900087950A94D2F780FD0FC0219788F7B12C65
:1018A0008B2DDF91CF911F910F91FF90EF90DF90E3
:1018B000CF90BF90AF900895AC9EF001AD9EF00D1B
:1018C0001124E00FF11FEE0FFF1FEC5DFE4F85911D
:1018D00094910E944C0A019701F3E2CFCF93DF93DA
:1018E000EC010E94170CEC2FF0E096E0D99FE00D80
:1018F000F11D11249CE3899FE00DF11D1124EE0FD1
:10190000FF1FEC5DFE4F85919491DF91CF910C9478
:101910004C0AE92FEE0FE90FEE0F8E0F982F9770FC
:1019200086958695869525E0829FF0011124E350E7
:10193000FE4F50E040E080E0219130E0092E02C0EF
:10194000369527950A94E2F721703327042E01C0BB
:10195000220F0A94EAF7822B4F5F5F4F4530510503
:1019600059F70895E92FEE0FE90FEE0F8E0F982F1C
:10197000977041E001C0440F9A95EAF786958695E5
:10198000869595E0899FF0011124E350FE4F30E0E9
:1019900020E070E05191DF011197CB01022E02C0CF
:1019A000969587950A94E2F781708195852784231F
:1019B00085278C932F5F3F4F2530310559F70895C8
:1019C000FC01808191810E946E0C292F2F709295CD
:1019D0009F7092509E3078F4E92FF0E0E658FD4C6D
:1019E0000C94CD31803F19F020F4883E20F481E042
:1019F0000895843FE1F380E00895883EC0F3813F7D
:101A0000D1F7F5CF822F869586958695089590E03B
:101A100080E00E94070990E080E00E94F1081092A7
:101A20006102109260020C94E00B609308047093C2
:101A3000090480930A0490930B040C94070D0F93F0
:101A40001F93609108047091090480910A04909199
:101A50000B048B019C0108711127222733270831C1
:101A600011052105310529F460621F910F910C9435
:101A7000150D6F7DFACF0F931F9341E050E060E0AA
:101A800070E004C0440F551F661F771F8A95D2F778
:101A9000CB01BA01609570958095909500910804EE
:101AA0001091090420910A0430910B0460237123E2
:101AB000822393231F910F910C94150D90915F0237
:101AC0008095892380935F02282F277091F4282F17
:101AD000082E000C330B9217130659F090919F02B9
:101AE00092FD07C08595859585950E943B0D1092C6
:101AF0005F0208950F931F9341E050E060E070E0B3
:101B000004C0440F551F661F771F8A95D2F7809136
:101B1000080490910904A0910A04B0910B048A0171
:101B20009B01082B192B2A2B3B2BC901B8011F91B4
:101B30000F910C94150D6093C2027093C3028093B1
:101B4000C4029093C5020C94070D882321F00E94D3
:101B5000D90B0C94E00B0895882339F09091620220
:101B6000982B909362020C94E00B0895882381F1E6
:101B70009CEF980F913A78F4EAEEF1E020EF31E033
:101B80009191891303C0DF0111971C922E173F0713
:101B9000B9F70C94E00B90E2980F983050F48770EE
:101BA00091E001C0990F8A95EAF7892F0E94D90B1D
:101BB000F0CF9BE5980F933020F490E080E00C94F8
:101BC0000709885A873120F490E080E00C94F108EE
:101BD0000895CF93C82F882309F44EC08CEF8C0F43
:101BE000813AF8F4EAEEF1E080EF91E0DF012D9127
:101BF000C21759F08A179B07D1F76C2F88EE91E036
:101C00000E94D708CF910C94E00B2191C21303C01E
:101C1000DF0111971C928E179F07B9F70E94E00B06
:101C2000ECCF80E28C0F883068F4C77021E030E0A0
:101C300001C0220FCA95EAF780916202822B80933D
:101C40006202E0CFEBE5EC0FE33040F4F0E0EA595C
:101C5000FE4F808190E0CF910C940709C85AC7319C
:101C600058F4EC2FF0E0EE0FFF1FE759FE4F808194
:101C70009181CF910C94F108CF910895CF92DF928A
:101C8000EF92FF926C01EE24FF2420E0C114D104F6
:101C9000E104F10419F0C701B60120E1C72ED82EE6
:101CA000E92EFF24C114D104E104F10419F0285FE6
:101CB000C701B6016B017C0154E0F694E794D79418
:101CC000C7945A95D1F7C114D104E104F10419F075
:101CD0002C5FC701B6016B017C0142E0F694E794EA
:101CE000D794C7944A95D1F7C114D104E104F10403
:101CF00019F02E5FC701B601969587957795679580
:101D0000672B682B692B09F02F5F822FFF90EF90D4
:101D1000DF90CF90089510926202EAEEF1E086E043
:101D2000DF011D928A95E9F70C94070D1F93CF935D
:101D3000DF93CDB7DEB7AA970FB6F894DEBF0FBE1C
:101D4000CDBF8DEF93E02091F100FC012193CF01F5
:101D5000F4E085309F07B9F78091FE03833009F4E2
:101D600070C0B8F4813009F447C0823009F4B1C0C2
:101D70008091E80083FF7EC28091FD039091FE0375
:101D80009A3008F077C2E92FF0E0E857FD4C0C9448
:101D9000CD318A3009F48CC08B3009F46FC08930A2
:101DA00039F78091FD03813219F7809101049091F8
:101DB00002040297E8F68091E800877F8093E800AC
:101DC0008091E80082FF38C09091F3008091F2008A
:101DD000029731F48091F100813011F0863021F4C6
:101DE0008091F1008093F0038091E8008B778093DD
:101DF000E8000E94B507BCCF8091FD03813A09F04D
:101E0000B7CF8091E800877F8093E800809101043C
:101E100090910204892B61F468E081EF93E070E017
:101E20000E9467088091E8008B778093E800A0CF3C
:101E300060E090E080E0F3CF8091FB038111C0CFA0
:101E400097CF8091FD03813A09F092CF80910104F0
:101E500090910204892B09F08BCF8091E800877F55
:101E60008093E8008091E80080FFFCCF80916501BD
:101E70008093F1008091E8008E77B9CF8091FD03C7
:101E8000813209F075CF8091010490910204892B71
:101E900009F06ECF8091E800877F8093E8000E9470
:101EA000B5078091FF03809365010E948B0E60CF80
:101EB0008091FD03813209F05BCF8091E800877F3C
:101EC0008093E8000E94B507809100048093EF039F
:101ED0004FCF8091FD03813A09F04ACF8091E8000D
:101EE000877F8093E8008091E80080FFFCCF80919D
:101EF000EF03BECF803899F0823809F0BBC18091E2
:101F000001048F70873008F0B5C18093E90080919B
:101F1000EB0085FB882780F91092E90006C08091CC
:101F2000F9039091FA03911182609091E800977FF4
:101F30009093E8008093F1001092F1008091E80006
:101F40008E7794C1882309F482C1823009F092C14E
:101F50008091FF03811185C1809101048F702FEF63
:101F6000280F263008F086C18093E9002091EB000D
:101F700020FF77C1933031F48091EB008062809331
:101F8000EB006FC19091EB0090619093EB0021E02A
:101F900030E001C0220F8A95EAF72093EA00109200
:101FA000EA008091EB008860EACF811163C1109153
:101FB000FF031F778091E3008078812B8093E300FB
:101FC0008091E800877F8093E8000E94B5078091A8
:101FD000E80080FFFCCF8091E30080688093E300FD
:101FE00082E0111183E08093FB0344C1805882306A
:101FF00008F040C18091FF03909100048C3D23E0E4
:102000009207A1F583E08A838AE289834FB7F89427
:10201000DE01139620E03EE051E2E32FF0E0509322
:102020005700E49120FF03C0E295EF703F5FEF702F
:102030008E2F90E0EA30C0F0C7968D939D932F5F6E
:10204000243159F74FBF8091E800877F8093E800E3
:102050006AE270E0CE0101960E9467088091E80074
:102060008B778093E80006C1C096E7CF40910104CA
:1020700050910204292F33272330310509F444C03D
:1020800078F52130310509F46FC08BE390E0E8E288
:10209000F8E02230310509F0EDC02091E800277FFB
:1020A0002093E800209103043091040482179307E1
:1020B00008F49C0140E02115310509F064C041118C
:1020C00062C08091E80082FDC9CF8091FB03882324
:1020D00029F2853019F28091E80083FFF2CFBECF5C
:1020E00021323105A9F12232310509F0C3C0411571
:1020F000510509F443C04130510509F0BBC082E3EA
:1021000090E0E6EBF7E0C9CF992781309105C1F067
:10211000009759F0029709F0ADC0E5E7F8E0E491C7
:102120008E2F90E0E5E7F8E007C0EFE9F8E0E491F2
:102130008E2F90E0EFE9F8E0009709F49BC0ADCF57
:10214000E3E8F8E0E4918E2F90E0E3E8F8E0F4CFE4
:102150004115510571F04130510509F08BC089E0FE
:1021600090E0E3E5F8E099CF82E190E0E3E6F8E083
:1021700094CF89E090E0EAE3F8E08FCF80E490E04C
:10218000E8EEF7E08ACF8091FB03882309F466CF5D
:10219000853009F463CF8091E80083FD5FCF8091A3
:1021A000E80082FD8ECF8091E80080FF84CF90917F
:1021B000F3008091F2002115310519F08830910566
:1021C00050F041E0089709F040E08091E8008E77F8
:1021D0008093E80070CF44914093F10031962150F4
:1021E00031090196E8CF803809F044C08091E800B9
:1021F000877F8093E8008091FC038093F1009ECE5E
:10220000811138C01091FF031230A0F58091E800D1
:10221000877F8093E8001093FC030E94B507112389
:1022200011F084E005C08091E30087FDFACF81E0E2
:102230008093FB0342E061EC81E00E94D40742E21C
:1022400061EC82E00E94D4078091FB0313C080916F
:10225000FF03813079F481E0933009F080E08093CE
:10226000FA031092E9008091E800877F8093E800EC
:102270000E94B5078091E80083FF0AC08091E800C2
:10228000877F8093E8008091EB0080628093EB0071
:10229000AA960FB6F894DEBF0FBECDBFDF91CF91E7
:1022A0001F910895CF93DF93682F81E06A3019F072
:1022B0006D3029F480E0DF91CF910C94E111809191
:1022C00015069091160626E0FC01AFE0B6E00190FD
:1022D0000D922A95E1F7603E08F45AC026E0FC0111
:1022E00011922A95E9F7C0911506D091160646E09D
:1022F00050E0BE018FE096E00E941A329E012F50FE
:102300003440892B41F1C90145E0969587954A955E
:10231000E1F741E050E0BA0102C0660F771F8A95ED
:10232000E2F7CB0160910D0470910E04862B972B80
:10233000B9016B5F7F4FE5E076956795EA95E1F728
:1023400002C0440F551F6A95E2F7842B952B90939A
:102350000E0480930D042A5F3F4F40910C04642FBC
:1023600070E0C9010E946931481B463010F4240F07
:10237000311D211572E0370710F030E020E0215FB9
:102380003B4F3093160620931506DF91CF910895A9
:10239000F6E06F9FB00111246D55774F46E050E095
:1023A0000E940432A0CFCF93DF93EC01FE01849111
:1023B000811103C0DF91CF9108950E94521121969F
:1023C000F5CFCF93382FE0911506F0911606EF5018
:1023D000F44020910C04622F70E0CF010E9469311B
:1023E000281B822F332361F066E00E947D31C82FC5
:1023F000C15010F4CF91089580E20E945211F8CF9D
:102400009F01280F311D2115324018F080E0F0E0C7
:10241000E0E08E0F9F2F911D815F9B4F90931606DA
:1024200080931506E7CF0E94D31181E00C94E1114F
:10243000CF92DF92EF92FF920F931F93CF93DF9390
:102440006C017B0164E670E088E70E94462EEC0197
:1024500097FD12C010E000E0F601E00FF11F84913B
:1024600064E670E00E94C02EEC01892B29F40F5F16
:102470001F4F0E151F0581F70E94432FCE01DF91DC
:10248000CF911F910F91FF90EF90DF90CF90089523
:102490008091DE039091DF03911103C091E08927C1
:1024A0000895882369F062E070E084EB97E00E9471
:1024B0001812892B19F08091DE0308951092DE0323
:1024C0008091DE03EBCFCF93C091DE038091DF03D9
:1024D0008823D1F00E94CB08605A75418F4F9F4FDF
:1024E0006093DA037093DB038093DC039093DD0346
:1024F000C11108C062E070E082EB97E00E94181200
:10250000892B29F0C091DE038C2FCF91089581E0B3
:102510008093DE03F7CF8093EB037093ED0360931A
:10252000EC038091FB03843001F582E08093E900A5
:102530008FEF9091E800815095FD06C095ED9A953A
:10254000F1F700008111F5CF8091E80085FF0DC003
:1025500050E040E063E070E08BEE93E00E948B0778
:102560008091E8008E778093E8000895BC0184E0B4
:102570000C948B12BC0183E00C948B12CF93DF93ED
:10258000EC0181E08093E9008FEF9091E8008150A9
:1025900095FD06C095ED9A95F1F700008111F5CFF4
:1025A0008091E80085FF14C050E040E068E070E0F2
:1025B000CE010E948B078091E8008E778093E8001F
:1025C00088E0FE01A1EFB3E001900D928A95E1F75A
:1025D000DF91CF910895609161018091D50380FFD3
:1025E00020C08091600143E0849FC00111248D5F71
:1025F0009C4F539A2BB1277F3BB138605FB7F8945B
:10260000FC01649FE00DF11D1124BF0168177907DB
:10261000D1F45FBF8FE594E00197F1F700C00000AF
:102620000895809162019091630123E0829FF001FF
:102630001124ED5FFC4F8917A0F6118210821282DF
:102640008F5F3396F8CFFC014191CF01E8E03BB9B1
:10265000000000C047FF2BB9440F000000C000C0BD
:1026600000C02BB900C0EA9591F7D0CF0F931F930C
:10267000CF93DF93EC0110E000E09091640190179C
:10268000110609F06CF40E94EB128C8190E0019627
:10269000817099278C83DF91CF911F910F910895BD
:1026A00020916201A801420F511D9A01220F331F90
:1026B000240F351F2D5F3C4F4C816091D7038091D3
:1026C000D60396959017110651F04CF0442349F02B
:1026D0004091D8030E9455090F5F1F4FCECF44236E
:1026E000B9F340E0F7CF8F929F92AF92BF92CF9213
:1026F000DF92EF92FF920F931F93CF93DF93EC0142
:102700004C81042F10E09801D8010E94DB319B011D
:10271000AC010E94F1314B015C01E0E2F0E0E01B12
:10272000F10BA5E5B0E0AC019B010E94F1316B011A
:102730007C019F01DF010E94D3319B01AC010E940B
:10274000FC319B01AC01280D391D4A1D5B1DC701E1
:10275000B6010E94AB31F22E822F90E039E23F1594
:1027600060F143E0249F9001112435952795122FA5
:10277000109500E085E5E82EEF18809164010817B8
:1027800058F10E94EB129C8181E0992319F090325C
:1027900019F48FEF80935F0180915F01890F8C8323
:1027A000DF91CF911F910F91FF90EF90DF90CF902D
:1027B000BF90AF909F908F90089525E530E0B901CC
:1027C000681B790B9B01220F331F260F371F37FF22
:1027D000CCCF2F5F3F4FC9CF8E2D01FD8F2D209184
:1027E0006201622F600F7727771F9B01220F331F33
:1027F000260F371F2D5F3C4F412F6091D7030E945A
:1028000055090F5FBACFEF92FF920F931F93CF93AB
:10281000DF93EC018C81811109C081E08C831092DF
:10282000010392E090935E0180935D0180916201CB
:102830009091630123E0829FF0011124ED5FFC4F32
:10284000891768F110E003E060916401161768F1E0
:102850000E94EB1280915D0120910103280F2093CB
:10286000010390915E01980F90935E01191654F444
:10287000022E000C330B409164014150550B24177C
:10288000350734F0819580935D01813009F41C8215
:10289000DF91CF911F910F91FF90EF9008951182DA
:1028A000108212828F5F3396CBCFE12EF12C70E035
:1028B000C7010E94973120916201820F482F50E09A
:1028C00020910103022E000C330BE216F306BCF03C
:1028D00020915E01022E000C330B2E153F057CF07B
:1028E000809F900111242D5F3C4F4091D80360914F
:1028F000D7038091D6030E9455091F5FA5CFFA0127
:10290000EE0FFF1FE40FF51FED5FFC4F11821082E9
:102910001282F3CF8F929F92AF92BF92CF92DF92AB
:10292000EF92FF920F931F93CF93DF93EC018A8175
:10293000BB24BA9480FD02C0BB24B394A090640170
:102940008C81811109C081E0B81228C08FEF8A0DF7
:102950008093000381E08C83F12CE12C46E4942EDB
:10296000EA14F8F00E94EB128091000391E0B91292
:102970005FC0811158C08091640181508093000331
:102980001C82DF91CF911F910F91FF90EF90DF900C
:10299000CF90BF90AF909F908F90089510920003BA
:1029A000D9CF009162010E0D1F2D111DC801880F96
:1029B000991F080F191F0D5F1C4FF801118210821B
:1029C000128234E0C32ED12C812C80910003880D1B
:1029D00087342CF1692D0E948931892F082E000C33
:1029E000990B8E159F0591F48091D8038C9DA001C1
:1029F0008D9D500D112455954795559547959801F6
:102A00006091D7038091D6030E9455098B0CF1E0A9
:102A1000CF1AD108D1F68FEFE81AF80AA1CF87FFB5
:102A2000DDCF8A0DDBCF815080930003BC82A9CF1C
:102A300090E001966091640170E00E94973180936C
:102A400000038C839ECFEF92FF921F93CF93DF936F
:102A5000EC0110E0EE24EA94F12C60916401161769
:102A600070F00E94EB129A818C8190FF27C08F5FDB
:102A70008C83DF91CF911F91FF90EF90089520916B
:102A80006201422F410F5527551FCA019A01220F9B
:102A9000331F280F391F2D5F3C4F70E0C7010E9484
:102AA0009731962F8C814091D8036091D703199F5D
:102AB000800D11240E9455091F5FCFCF8150D8CFC0
:102AC0009091D50390FF14C0909162012091630111
:102AD00033E0939FF0011124ED5FFC4F921710F04B
:102AE0000C94EB128183608342839F5F3396F6CF11
:102AF00008950F931F93CF93DF9300D00F92CDB71C
:102B0000DEB78C018091020381110AC09E012F5F04
:102B10003F4F48E76FEF0E9455098A818093020377
:102B2000F8016481613069F08091020340E066231E
:102B300061F040E0623011F44091020380E060E017
:102B400004C06091020340E080E00E946015F8013B
:102B5000848190E0019663E070E00E949731848365
:102B60000F900F900F90DF91CF911F910F910895CB
:102B7000CF93DF9300D00F92CDB7DEB79091D503FE
:102B800090FF0AC09E012F5F3F4F0E9455094B8165
:102B900069818A810E9460150F900F900F90DF91DC
:102BA000CF910895CF93DF93EC01E5EDF3E04381FE
:102BB00062818C810E94B8158C818F5F8C83DF913C
:102BC000CF910895CF93DF93EC01EC81F0E0EE54C8
:102BD000F94F4491E5EDF3E0628181810E94B815DF
:102BE0008C818F5F8C83DF91CF910895E5EDF3E0C9
:102BF00080818E7F80830E943809ECEFF2E0828131
:102C0000816082832FEF80E792E0215080409040E6
:102C1000E1F700C000000C94EB129F92AF92BF92BC
:102C2000CF92DF92EF92FF920F931F93CF93DF9398
:102C30007C015B016A018091990201E010E08A3019
:102C400010F40AE010E0C1E0D0E0F894B501C7014B
:102C5000F6010995982E0E94F009911004C0219662
:102C60000C171D076CF4892DDF91CF911F910F91E7
:102C7000FF90EF90DF90CF90BF90AF909F9008951E
:102C8000CC9F9001CD9F300D300D112490E080E05D
:102C900045E34A95F1F70000019682179307C1F7C3
:102CA000D4CF80916E02811110C08091D8008061D4
:102CB0008093D8008AE18A95F1F700C08091D9000D
:102CC00080FF0AC081E080936E0281E090916E02E5
:102CD000913009F080E0089582E080936E020E94B6
:102CE0003B071092FB03F1CF0E945116882351F04D
:102CF000E091E203F091E303309721F00190F0813D
:102D0000E02D099480E008950F931F930E945116BF
:102D1000882321F01F910F910C94CB080E94CB08BF
:102D200000919A0210919B0220919C0230919D0289
:102D3000600F711F821F931F1F910F9108951F93A2
:102D4000CF93DF93182FCAE0D0E0893311F4C0E5A8
:102D5000D0E0812F0E94E90D8FE99FE00197F1F704
:102D600000C000002197C1F7812FDF91CF911F9103
:102D70000C94B60DCF93C62F811109C089EA611159
:102D800001C08AEA0E949F1681E0CF9108958130A8
:102D9000D9F7609108047091090480910A04909118
:102DA0000B040E943E0E833038F0853050F481E5EC
:102DB000C111E8CF82E5E6CF8EE4C111E3CF8BE409
:102DC000E1CF8AEFC111DECF89EFDCCFCF92DF9266
:102DD000EF92FF926B017C010E943F09B701A601AF
:102DE00088E090E0FF90EF90DF90CF900C94563207
:102DF000AF92BF92CF92DF92EF92FF920F931F9309
:102E0000CF93DF9300D00F92CDB7DEB7182FF62EF9
:102E1000042FE22E9091D50390FF3AC0E92FE6955A
:102E2000AE2FB0E0AF53BE4F8C918093FC029E7FDB
:102E30009230E1F59E012F5F3F4F812F0E9455098F
:102E40004B8169818A810E9460158091D60381132C
:102E500008C08091D7038F1104C08091D8038017D8
:102E600029F08091FE0282608093FE021093D603C7
:102E7000F092D7030093D803EE2051F06091D50370
:102E80007091D6038091D7039091D8030E94E616E3
:102E90000F900F900F90DF91CF911F910F91FF90A6
:102EA000EF90DF90CF90BF90AF900895823019F4EB
:102EB0000091D803CACF863019F41091D603C5CF3C
:102EC0008930D9F3893109F6E9518E2F8170D82ED6
:102ED000E695F0E0E355F94FA590B490C12CBB24E2
:102EE00060916401C61618F00E94EB12AECF2C2D33
:102EF00030E0A29EC001A39E900DB29E900D1124C1
:102F000070E00E946931812FD11013C0860F40916B
:102F10006201420F532F511D9A01220F331F240FBC
:102F2000351F2D5F3C4F402F6F2D0E945509C394D4
:102F3000D7CF861BECCFE5EDF3E0438121E1421BC7
:102F400008F440E021E0628181810C94F816E5EDFF
:102F5000F3E0438121E1420F08F44FEF21E0628169
:102F600081810C94F816E5EDF3E0628121E1621BAA
:102F700008F460E021E0438181810C94F816E5EDCE
:102F8000F3E0628121E1620F08F46FEF21E04381F9
:102F900081810C94F816E5EDF3E0818121E0438115
:102FA00062818A500C94F816E5EDF3E0818121E00E
:102FB00043816281865F0C94F8168091D90388233F
:102FC00019F081508093D9036091D5037091D60395
:102FD0008091D7039091D8030C94E6168091D90381
:102FE000833018F48F5F8093D9036091D50370917B
:102FF000D6038091D7039091D8030C94E616E5EDA3
:10300000F3E083E0808311828FEF828388E78383FC
:103010001482ACEFB2E012968C91129783601296F4
:103020008C9360817181828193810C94E616CF9399
:1030300084E090E00E943032C82F82E290E00E944B
:103040003032982F8C2FCF910895CF93DF93CDB747
:10305000DEB729970FB6F894DEBF0FBECDBF85E06F
:10306000E5EDF3E0DE01119601900D928A95E1F70E
:103070008091FC029091FD02A091FE02B091FF02AE
:103080008E839F83A887B9872885409195025091A8
:10309000960260919702709198023FB7F8948091E0
:1030A000E7039091E803A091E903B091EA033FBFE1
:1030B000841B950BA60BB70B84369105A105B105B2
:1030C00010F4222319F18091350190913601805836
:1030D0009D4F4091340150E04A30510510F049E0D5
:1030E00050E0BE016F5F7F4F0E94273285E090E085
:1030F0000E94B530892BB1F40E94CB0860939502F1
:103100007093960280939702909398021092FE0219
:1031100081E029960FB6F894DEBF0FBECDBFDF91D8
:10312000CF91089580E0F5CFCF93DF9300D000D00A
:10313000CDB7DEB740917C0250917D0260917E0256
:1031400070917F022FB7F8948091E7039091E80384
:10315000A091E903B091EA032FBF841B950BA60B46
:10316000B70B84369105A105B10568F10E9484165C
:103170006E5F7F4F8F4F9F4F69837A838B839C83D2
:1031800080912B0190912C0180589D4F40912A01F4
:1031900050E04530510510F044E050E0BE016F5F53
:1031A0007F4F0E94273284E090E00E94B530892B47
:1031B00061F40E94CB0860937C0270937D0280933F
:1031C0007E0290937F0281E001C080E00F900F901B
:1031D0000F900F90DF91CF9108956F927F928F9211
:1031E0009F92AF92BF92CF92DF92EF92FF920F9396
:1031F0001F93CF93DF930F92CDB7DEB7862E5A0180
:103200006901682E880F7708C3010E94B530892BA9
:1032100009F088C08AE0869DF001879DF00D112499
:10322000E050FF4F458150E04115510511F041E05C
:1032300050E08AE0869DF001879DF00D1124E0505A
:10324000FF4F6681778160587D4FCE0101960E94C5
:103250002732F50140815181628173812FB7F89443
:103260008091E7039091E803A091E903B091EA030C
:103270002FBF841B950BA60BB70B84369105A105B8
:10328000B10540F4B701C8010E941D099981891751
:1032900009F44FC0082C000C9908C4010E94B530F5
:1032A000892B91F0B12C8B2D0F90DF91CF911F9135
:1032B0000F91FF90EF90DF90CF90BF90AF909F90D5
:1032C0008F907F906F9008958AE0889DF001899D8E
:1032D000F00D1124E050FF4F458150E0E416F50653
:1032E00008F4A7018AE0889DF001899DF00D112462
:1032F000E050FF4F6681778160587D4FC6010E9484
:103300002732B701C8010E941D0999818913CACFCC
:103310000E94CB08F5016083718382839383BB2471
:10332000B394C1CFB12CA701B801C6010E942732C6
:10333000BACFBB24B394F7CFCF92DF92EF92FF9234
:103340000F931F93CF93DF930F92CDB7DEB7EE2489
:10335000E394F12C07E812E09E012F5F3F4F48E70E
:1033600052E063E082E00E94ED18082F882321F1EB
:10337000C090AD028C2D90E09C0123543D4F79010B
:103380001981F9018081181BD12E80E00AC0DA94DE
:10339000F70180818F5F808361E08C2D0E94BA16D7
:1033A000802F1D14A4F3912F17FD90E0191B11110C
:1033B0000EC081110E94D10B802F0F90DF91CF9111
:1033C0001F910F91FF90EF90DF90CF9008951F5FB6
:1033D000F70180818150808360E08C2D0E94BA16B5
:1033E000802FE5CFCF92DF92EF92FF920F931F9342
:1033F000CF93DF9300D000D00F92CDB7DEB76B0133
:1034000085E0E82EF12C01E812E09E012F5F3F4F8E
:1034100044E752E061E080E00E94ED18882349F023
:1034200095E0FE013196AFE6B2E001900D929A95DB
:10343000E1F795E0EFE6F2E0D60101900D929A9562
:10344000E1F70F900F900F900F900F90DF91CF91B9
:103450001F910F91FF90EF90DF90CF90089569EE4C
:103460007EEF90E080E00E94623260E082E090E0D7
:103470000E94443260E083E090E00E944432109267
:10348000C2021092C3021092C4021092C50260E000
:1034900084E090E00E94443260E082E290E00E948A
:1034A000443260E085E090E00E94443260E086E0D3
:1034B00090E00E9444326FEF87E090E00E94443237
:1034C00040E050E0BA0188E090E00E94563260E0AF
:1034D0008DE090E00E94443240E050E0BA0188E183
:1034E00090E00E94563260E087E190E00E94443212
:1034F00040E050E0BA018CE190E00E94563270E06A
:1035000060E080E290E00E94623240E050E0BA0168
:1035100088E190E00E94563240E050E0BA018FE02E
:1035200090E00E94563240E050E0BA0183E190E022
:103530000C945632CF93C0919F02C2FB992790F909
:10354000981799F080FBC2F9C0939F0260919E0288
:1035500084E090E00E9444326C2F82E290E00E946E
:10356000443282E0CF910C945E0DCF910895CF92BA
:10357000DF92EF92FF92C12CD12C7601C39404C04C
:10358000CC0CDD1CEE1CFF1C8A95D2F76C2D83E061
:1035900090E00E944432C701B601FF90EF90DF90A7
:1035A000CF900C949B0D1F920F920FB60F92112487
:1035B0002F933F934F935F936F937F938F939F933B
:1035C000AF93BF93CF93DF93EF93FF93D091E90035
:1035D000DF708091EC00C82FC17080FDC0E81092B0
:1035E000E9008091F000877F8093F00078940E943A
:1035F000960E1092E9008091F00088608093F000B0
:10360000CD2BCF70C093E900FF91EF91DF91CF9167
:10361000BF91AF919F918F917F916F915F914F91EA
:103620003F912F910F900FBE0F901F9018951F92F2
:103630000F920FB60F9211242F933F934F935F93E6
:103640006F937F938F939F93AF93BF93EF93FF936A
:103650008091E10082FF09C08091E20082FF05C0F5
:103660008091E1008B7F8093E1008091DA0080FF00
:1036700024C08091D80080FF20C08091DA008E7F26
:103680008093DA008091D90080FF9DC080E189BDE0
:1036900082E189BD09B400FEFDCF81E08093FB0388
:1036A0008091EE03811109C00E943B070E94060829
:1036B0008091E20084608093E2008091E10080FFCD
:1036C00017C08091E20080FF13C08091E2008E7FDE
:1036D0008093E2008091E20080618093E20080911B
:1036E000D80080628093D80019BC85E08093FB03EA
:1036F0008091E10084FF2BC08091E20084FF27C00D
:1037000080E189BD82E189BD89B5982F917080FFE4
:10371000FBCF8091D8008F7D8093D8008091E1000D
:103720008F7E8093E1008091E2008F7E8093E200A3
:103730008091E20081608093E2008091FC03882305
:1037400009F447C084E08093FB038091FB038091E0
:10375000E10083FF27C08091E20083FF23C08091B6
:10376000E100877F8093E10082E08093FB03109269
:10377000FC038091E1008E7F8093E1008091E20064
:103780008E7F8093E2008091E20080618093E2006E
:1037900042E060E080E00E94D4078091F000886001
:1037A0008093F000FF91EF91BF91AF919F918F9126
:1037B0007F916F915F914F913F912F910F900FBE2D
:1037C0000F901F90189519BC1092FB031092EE03F6
:1037D00074CF8091E30087FD93E09093FB03B5CF16
:1037E00078941F921FB61F9211248F939F93AF93CB
:1037F000BF938091E7039091E803A091E903B09112
:10380000EA030196A11DB11D8093E7039093E8039D
:10381000A093E903B093EA03BF91AF919F918F9179
:103820001F901FBE1F9018959C014FB7F894809170
:10383000E7039091E803A091E903B091EA034FBF39
:10384000821B930B08952FB7F8948091E703909112
:10385000E803A091E903B091EA032FBF08950F9305
:103860001F93CF93DF93C62FD42F022FFC018281A9
:103870008823A1F0609307040E94231C9093060400
:1038800080930504C77081E001C0880FCA95EAF7EC
:10389000DF91CF911F910F910C94AC0D8091070493
:1038A000681335C080910504909106040E94141C91
:1038B000883C910560F510E21D0FCD17B9F080E24C
:1038C0008C0F883040F4C77081E001C0880FCA9522
:1038D000EAF70E94A50D183048F481E09D2F9770FB
:1038E00001C0880F9A95EAF70E94AC0D802F0E94C4
:1038F0009F16183098F4D77081E001C0880FDA95D0
:10390000EAF7DF91CF911F910F910C94A50DC7702D
:1039100081E001C0880FCA95EAF7F3CFDF91CF911C
:103920001F910F9108950E94511681110C94231C30
:103930000E948416CB0108956091D503669570E0CE
:103940004BE050E082E591E00E940D32892B19F4A2
:1039500081E08093FD020E94931C9093F702809374
:10396000F6028091FE0284608093FE020895909199
:10397000D50390FF3BC0917081112EC0926090934F
:10398000D5038091FE0281608093FE02662351F090
:103990006091D5037091D6038091D7039091D8039D
:1039A0000E94E6166091D503669570E04BE050E00A
:1039B00082E591E00E940D32892BA9F00E9438091E
:1039C00081E08093F90220E04091D8036091D70311
:1039D0008091D6030C94F816853210F09864CFCFFE
:1039E000880F982BCCCF0E949C1CEACF0895809121
:1039F000D5038695815009F484E261E00C94B71CEC
:103A00008091D50386958F5F853208F081E061E073
:103A10000C94B71C9091D50390FF07C0969598170A
:103A200020F0961710F40C94001D61E00C94B71C64
:103A30004F925F926F927F928F929F92AF92BF92BE
:103A4000CF92DF92EF92FF920F931F93CF93DF936A
:103A500000D000D00F92CDB7DEB77C01DC01139609
:103A60008D919C911497892B41F01C911196DC90BB
:103A7000812F8D218F3F09F0A9C50F900F900F90D6
:103A80000F900F90DF91CF911F910F91FF90EF90CA
:103A9000DF90CF90BF90AF909F908F907F906F906E
:103AA0005F904F9008950E94170C082F682F89810E
:103AB0009A810E94B20CE12FF0E0B6E0DB9EE00DAF
:103AC000F11D11242CE3029FE00DF11D1124EE0FD6
:103AD000FF1FEC5DFE4F05911491F801E65AFD457C
:103AE000E730F10538F4EE56FD4CD7011296DC9024
:103AF0000C94CD31043FBCE51B0709F4D4C008F099
:103B00005CC0093DFCE51F0709F4C9C00A3D2CE56E
:103B1000120709F4D4C0083D3CE5130709F4BBC003
:103B2000F7018281882309F464C5109207040430E8
:103B3000FDE51F0708F0C6C00B3F2CE5120730F467
:103B4000C80182509C45449708F0C1C00E941718D4
:103B500090939F0280939E0200318CE5180709F430
:103B600089C108F005C10830ACE51A0709F474C131
:103B700008F0D4C00430ECE51E0709F45BC108F07E
:103B8000BDC002302CE5120709F44EC180919E029F
:103B9000826003301C4509F44AC160919E02109175
:103BA0009F0284E090E00E944432612F82E290E024
:103BB0000E9444320E948B0E16C0063F8CE5180707
:103BC00009F479C008F473C027E245EE66EE073FBA
:103BD000ACE51A0709F0A4CFC7010E942F1C03C04F
:103BE00080E0D1102AC080915F02877009F445CF30
:103BF000D70112968C91882309F43FCF80919F02C0
:103C000082FD3BCF82E00F900F900F900F900F90AE
:103C1000DF91CF911F910F91FF90EF90DF90CF90A8
:103C2000BF90AF909F908F907F906F905F904F90DC
:103C30000C945E0D81E0DD20B1F20E94B71AD3CF63
:103C4000DD2089F282E0F9CF83E0DD2039F00E94A7
:103C50007A0D0E941F0DC7CF84E0F7CF0E943B0D65
:103C6000F8CF85E0DD2019F00E947A0DBCCF0E94CC
:103C70003B0DB9CF87E00E94090ADD2031F00E9498
:103C8000AC0D82E50E94E90D4BCF0E94A50D82E5A7
:103C90000E94B60D45CF26E241EE61EE9DCF27E2B0
:103CA00045EE65EE99CF26E241EE60EE95CF27E234
:103CB00045EE64EE91CF26E241EE62EE8DCF28E232
:103CC00041E0EFCF02363DE5130709F43FCF06315F
:103CD0008CE5180709F0A5C4809162028A7A91E008
:103CE00009F490E09093FB0169E2811165E388EEAD
:103CF00091E00E94D7080E94E00B75CF06308CE55A
:103D0000180709F4A5C080919E02886007301C4501
:103D100008F48DC080919E02806289C080919E02CD
:103D20008D7F0C30ACE51A0709F481C070F48091E6
:103D30009E028C600A30ECE51E0709F478C008F496
:103D40008FC080919E028E7F72C080919E02877F7D
:103D50000E302CE5120709F46AC080919E028B7F19
:103D60000F301C4508F463C080919E028F7E5FC0B7
:103D70000D3F8CE5180709F479C068F50431ACE50E
:103D80001A0709F48BC080F40231ECE51E0709F430
:103D900075C080919E028F7B03311C4508F447C09B
:103DA00080919E02837F43C00B3F2CE5120709F4EC
:103DB00045C008F049C005311C4509F0EECE8091A0
:103DC0009E0282FB992790F921E0922790FB82F9CD
:103DD00090FB83F92CC001309DE5190709F454C00C
:103DE00088F480919F0283600F3FBCE51B0749F177
:103DF00080919F028D7F01151D4518F180919F02D2
:103E00008C7F1FC00330FDE51F0709F456C008F47E
:103E10004EC002361D4509F0C0CE90919E02892FFA
:103E20008F7E94FF806103C080919E0281608093A9
:103E30009E02B3CE80919E028460F9CF80919F0252
:103E4000816080939F02A9CE80919F028260F9CF0A
:103E500080919E028061EBCF80919E028064E7CFCB
:103E60000E948B0E80919E028068E1CF80919F021C
:103E70008E7FE7CF80919E028F7DD9CF0E948B0EDF
:103E800080919E028F77D3CF80919F02982F90953B
:103E900091708E7F892B90FB81F9D3CF0E948B0E7E
:103EA00090919E02892F97FB87F98058C0CF61E0DF
:103EB0008EE090E00E94443270CE60E0F9CF85E35E
:103EC000A2C381608093D50361E086950E94B71CF0
:103ED0008ACE47EF5CE160E07DE10E94330983CE4A
:103EE00040E05DE167EF7CE1F8CF44ED57E16BEC3A
:103EF00077E1F3CF43EB57E16FEB77E1EECF4BE99F
:103F000057E167EA77E1E9CF47EA57E16BE977E103
:103F1000E4CF4EEE57E16DED77E1DFCF61E081E078
:103F2000D5CF65E082E00E940A1D5DCE68E086E0A4
:103F3000FACF64E18FE0F7CF67E185E1F4CF62E289
:103F400089E1F1CF61E083E2C1CF0E948B0EEFEFF8
:103F5000F4E32CE0E150F0402040E1F700C0000025
:103F600087E797E7909301088093000888E19AE03B
:103F70000FB6F894A895809360000FBE90936000F0
:103F8000FFCF81E06EC380E06CC3812F902F0E9431
:103F9000890CD82E79C3FD2DFF70CF2E8D2D807FFB
:103FA00019F0C29430EFC3221123B9F0CC2069F08C
:103FB00080E2800F883010F0A11009C08091620269
:103FC000C82AC09262020E94E00B802F4FC08091ED
:103FD0006102C82AC0926102F6CF802F0E94B60DFE
:103FE000CC2009F445C0005E083010F0A11004C0D8
:103FF0008C2D0E94D90B06C0C09480916102C8220A
:10400000C09261020E94E00B33C02D2D2F70C22E92
:104010008D2D807F803219F0C29420EFC222AA2019
:10402000A1F031E0A31609F49DC0112309F4A7C043
:10403000BB2009F49DC0D70115968C91159780FF80
:10404000C4CF8F7015968C9393C020919F0222FF4E
:1040500066C0112309F45CC0CC2039F08091620263
:10406000C82AC09262020E94E00B80E00E94E90D23
:10407000E82DE850FF0B349710F40E9474161123BA
:1040800079F08D2D807F803619F4F6EFAF1641F070
:104090008091FC01823009F091C283E08093FC01A1
:1040A0009920B1F080915F0280FD12C0D701129675
:1040B0001C928595859585950E947A0DC7010E9471
:1040C000181D80915F028595859585950E943B0D11
:1040D00085E0F701DE01119601900D928A95E1F7D6
:1040E00089819A810E94890C9A81E981F0E0B6E089
:1040F0009B9FE00DF11D11242CE3829FE00DF11D2B
:104100001124EE0FFF1FEC5DFE4F85919491B5CC0D
:1041100080E00E94B60DCC2009F4AACF69CF11230C
:10412000A1F0909163028C2D892BB11003C00E94E5
:10413000AC0D9ECFA1E0BA12FACF22FD99CF98170D
:1041400009F496CF8093630293CFB11006C00E940A
:10415000D30B8C2D0E94A50D8BCFB1E0BB1609F4BB
:1041600087CFF5CF112331F0E5E0EB1508F480CFD0
:104170008C2DDDCFF4E0FB1508F47ACFEACFBB201D
:1041800041F3B9E3AB120DC0EFEFF7EE23E0E150DE
:10419000F0402040E1F700C00000802F0E94B60DE3
:1041A00067CF8FE39CE90197F1F7F5CF8D2D8695C9
:1041B0008695837069F0813009F05ACF802F9D2D4C
:1041C0009370111102C090E080E00E94F10850CF7E
:1041D000802F9D2D9370111102C090E080E00E940D
:1041E000070946CF8D2D837009F067C0111140CFAC
:1041F000202F229526952770220F220F402F4F70D7
:1042000050E070E060E0022E04C0440F551F661FAE
:10421000771F0A94D2F780E090E0DC0104FF0FC022
:104220008FE090E0A0E0B0E004C0880F991FAA1FC3
:10423000BB1F2A95D2F780959095A095B0952D2D0E
:10424000269526952370223029F1D8F44090C20299
:104250005090C3026090C4027090C502213069F092
:10426000842B952BA62BB72BBC01CD016421752186
:10427000862197210E949B0DFBCE44295529662952
:1042800077292A013B01482A592A6A2A7B2AC30135
:10429000B201F0CF842B952BA62BB72B4090C202F6
:1042A0005090C3026090C4027090C502BC01CD0161
:1042B0006425752586259725DDCF8695112311F078
:1042C0008D2D8170882309F4D3CE202F2295269539
:1042D0002770220F220F402F4F7050E070E060E0F7
:1042E000022E04C0440F551F661F771F0A94D2F791
:1042F00080E090E0DC0104FF0FC08FE090E0A0E0E0
:10430000B0E004C0880F991FAA1FBB1F2A95D2F7DF
:1043100080959095A095B0952D2D26952695237086
:10432000223029F1D8F4409008045090090460909C
:104330000A0470900B04213069F0842B952BA62B76
:10434000B72BBC01CD0164217521862197210E94E4
:10435000150D8ECE44295529662977292A013B015E
:10436000482A592A6A2A7B2AC301B201F0CF842B3A
:10437000952BA62BB72B4090080450900904609011
:104380000A0470900B04BC01CD01642575258625B7
:104390009725DDCF2D2D2F70C22E112329F0822FCE
:1043A0000E947A0D802FC3CE802F0E94A50D8C2DE8
:1043B0000E943B0D5DCE802F32EFA31609F441C061
:1043C0003A1570F090EFA916D1F0A1EFAA1691F06E
:1043D000112309F470C0B110F8CD8D2D8F7135C047
:1043E000B3EFAB16A9F1E4EFAE12F2CF80919F02CA
:1043F00082FF42C08D2D8F711123D1F226C011236F
:10440000D1F0F4E0FB1508F433CE2D2D2F7161E0CF
:1044100070E080E090E004C0660F771F881F991F4E
:104420002A95D2F7409008045090090460900A043D
:1044300070900B04AACF95E0492E4B1408F418CEC7
:10444000E4CF8D2D8F711111B3CF0E947A0D10CE54
:1044500060E070E0CB01112309F479CF2D2D2F718D
:1044600061E070E080E090E004C0660F771F881F75
:10447000991F2A95D2F76BCF112391F00D2D0F7153
:10448000802F0E947A0D80919F0282FD07C028E054
:10449000029FC0011124836080935F02802FD5CFDB
:1044A00081E00E945E0D31E03B1508F0E1CD82E035
:1044B0000E945E0DDDCDBB2079F0893341F48FEF92
:1044C00097EEA3E081509040A040E1F764CEEFE387
:1044D000FCE93197F1F75FCE8D2D8F7169CFE0E167
:1044E000E00FE73008F03FC0F0E0E756FD4C0C94D9
:1044F000CD31112309F4BCCD8091260291E08927AA
:1045000080932602B5CD10932602B2CD81E081279B
:10451000F7CF1111ADCD81E0F3CF1111A9CD1092DC
:104520002602A6CD112321F082E08093FC01F3CF77
:104530008091FC01823021F481E08093FC0198CDD0
:10454000833009F095CD1092FC01E9CF112339F0A9
:1045500080912502882381F21092250289CDF4E012
:10456000FB1550F685CD80912502BB20D9F088231C
:1045700041F08091260291E08927809326021092D3
:104580002502111122CD8FE39CE90197F1F700C0BC
:104590000000802F0E94B60D86E0D7011D928A95FB
:1045A000E9F766CD882309F463CD111161CD8091BF
:1045B000260291E0892780932602CECF813009F030
:1045C0006FCD1092FC01109226026ACD85E0F701B2
:1045D000DE01119601900D928A95E1F7D7011296AE
:1045E0002C9189819A8121115ECA0E94890C082F21
:1045F00062CA0631BCE51B0709F096C08091FB0139
:1046000081115DCC89E2EAEEF1E020EF31E0919199
:10461000891303C0DF0111971C922E173F07B9F7CA
:104620006ACB0B35EDE51E0709F4ABCC58F4011548
:104630002CE5120709F489CC0F3D1C45A1F40E941A
:104640002F1AD1CA0C358DE5180709F49CCC0D350D
:104650001D4549F480919F0282FB882780F991E0F3
:1046600089270E949A1AF70182811081018188238B
:1046700009F48BCC812F902F0E94170CD82E682F15
:10468000812F902F0E94B20CE12FF0E026E0029FD4
:10469000E00DF11D11243CE3D39EE00DF11D11242A
:1046A000EE0FFF1FEC5DFE4F859194910E944C0A26
:1046B000082FD92EA82ED70112961C911297159665
:1046C000BC90B2946FE0B62280915F028770E9F0EF
:1046D000912E1123D9F0892F807F803449F090E208
:1046E000900F983090F0803619F4B6EF0B1769F000
:1046F00080919F0282FD09C082E00E945E0D809140
:104700005F028770992493948111912C8D2C82944F
:104710004FE08422EBE0E81508F4AACCE82DF0E0A5
:10472000E056FD4C0C94CD318091620282720D3CBA
:10473000ACE51A0709F4EDCB08F064C0073CECE5E2
:104740001E0709F4D2CBE0F5043C2CE5120709F46E
:10475000C0CB40F5033C1C4509F085CF8091D503C3
:1047600080FFAFCB8E7F8093D5036091D50370918E
:10477000D6038091D7039091D8030E94E6160E9439
:1047800038098091FE0281608093FE029FEFA0E7CE
:10479000B2E09150A040B040E1F700C000000E949C
:1047A000EB1221CA053C9CE5190709F499CB4BECA7
:1047B00057E164ED77E1063C1C4509F48ECB53CFFD
:1047C0000A3CBCE51B0709F49ACB70F4083CFCE5F5
:1047D0001F0709F48FCB4FEB57E163EB77E1093CFF
:1047E0001C4509F47ACB3FCF0B3C3CE5130709F499
:1047F0008BCB4DED57E16EEE77E10C3C1C4509F497
:104800006CCB31CF023DACE51A0709F492CB98F49A
:104810000F3CECE51E0709F484CB08F47FCB003D88
:104820002CE5120709F482CB6EE089E0013D1C45BE
:1048300009F479CB18CF053D8CE5180709F47FCB37
:1048400060F4033DACE51A0709F476CB61E088E13A
:10485000043D1C4509F43ACB06CF063DECE51E07A6
:1048600009F470CB0E351D4509F4BDC9FCCE1F936C
:10487000CF93DF9380912C02807FA9F4809129024D
:10488000882389F080915E02D0912D0260912702E9
:1048900070912802A0912A02B0912B02C62FC72343
:1048A00016E0D81304C0DF91CF911F91089590E0D6
:1048B000109711F0CF3F19F401968770F2CF189F2F
:1048C0009001199F300D1124F901E25DFD4F4181E6
:1048D0004713F2CF40814613EFCF42814111ECCF15
:1048E000438154814A1B5B0B483C510528F780915A
:1048F0002C028F70806180932C02F901ED5CFD4FDA
:1049000080818F708061808387E292E00E94181D11
:10491000DF91CF911F910C940D0CAF92BF92CF926B
:10492000DF92EF92FF920F931F93CF93DF93CDB758
:10493000DEB761970FB6F894DEBF0FBECDBF8C0116
:1049400085E0F801DE011D9601900D928A95E1F750
:10495000F801E28087E2A82E82E0B82E60912A0258
:1049600070912B026115710509F422C19091270203
:1049700040912802892F84238F3F09F419C1208197
:104980003181C380D480F0902902F601E61BF70B39
:10499000FF2009F4F4C080912C02582F507FE83C8E
:1049A000F10508F0B7C0511177C0FE2C431321C0A8
:1049B00092131FC0E1101DC08F70806180932C0284
:1049C000C5010E94181D80912C02F80185838F2D4E
:1049D00061960FB6F894DEBF0FBECDBFDF91CF91C9
:1049E0001F910F91FF90EF90DF90CF90BF90AF900D
:1049F0000895CD2829F0822F83238F3F09F001C12C
:104A000080E0F82FF170DF2E80FF3CC080915E02C5
:104A100040912D0256E0841315C02D873E878D8569
:104A20009E850E946E0C292F22952F702230F0F067
:104A3000243018F59F70F1F0F8019581907FD1F442
:104A4000D12C1EC090E0589FF001599FF00D112409
:104A5000E25DFD4F6181361306C06081261303C0FD
:104A60006281E6120FC001968770D5CF9F7011F05A
:104A7000882331F3805E883018F3C8010E94181D26
:104A8000FD2CA5CFEE2009F4A2CF80912C028160ED
:104A900080932C02F12C9BCF431312C0921310C0B1
:104AA000E1100EC0F8018583C8010E94181D86E040
:104AB000F801A7E2B2E001900D928A95E1F787CF65
:104AC000C8010E94E00C882309F1EE20F9F08091E2
:104AD0002C02803270F02091270230912802388712
:104AE0002F831986DB86CA868C87CE0107960E94A3
:104AF000181D86E0F801A7E2B2E001900D928A95B8
:104B0000E1F70E943724FF24F39461CFC8010E948B
:104B1000181DF9CF51110AC087E292E00E94181DBA
:104B200086E0F50111928A95E9F7B4CF43130FC0DF
:104B300092130DC0E1100BC0F8018583C8010E94DB
:104B4000181D86E0F50111928A95E9F740CFC8015A
:104B50000E94E00C8823D1F2EE20C1F280912C0259
:104B6000803238F220912702309128023A8329833B
:104B70001B82DD82CC828E83CE010196B8CFE83CC9
:104B8000F105F8F6FE2CEE2009F2431303C092174C
:104B900009F48DCFC8010E94E00C8111AACF809149
:104BA0002C02816080932C02C8010E94181D0FCF37
:104BB000EE2009F4ABCFC8010E94E00CF82E882348
:104BC00009F4A4CF86E0F801A7E2B2E001900D92CB
:104BD0008A95E1F780912702909128020E946E0C3D
:104BE00092959F70963051F4863F41F08091260255
:104BF00091E0892780932602909325020E94372412
:104C0000E6CE81E08E25FDCE0F931F93CF93DF93E9
:104C1000CDB7DEB767970FB6F894DEBF0FBECDBF36
:104C20006D8B7E8B8F8B752F6111109261028E8937
:104C30009F89892B09F487C0872F84238F3F09F030
:104C40005BC07FEF4FEF7FC0902F909589237AC094
:104C500086E0FE013796DE01119601900D928A954D
:104C6000E1F78A859B85892B09F48AC08F81988515
:104C700089238F3F09F484C020912D0230E0C901BF
:104C800001968770992740915E024817190671F4C2
:104C90000E948B0E10922D0210925E0286E0E7E2D7
:104CA000F2E0DF011D928A95E9F76AC096E0929FD3
:104CB000D001939FB00D1124A25DBD4FFE0131962E
:104CC00001900D929A95E1F780932D020E940D0CB0
:104CD00057C0819FC0011124825D9D4F0E948D2489
:104CE000882309F454C080915E0290E00196877099
:104CF000992780935E0245C001E010E0042E01C0B8
:104D0000000F0A94EAF7A72FB0E0AF50BE4F8C9186
:104D100090912602611102C0982F9023992309F4E3
:104D200093CF50E096E0799F400D511D1124440F20
:104D3000551FFA01E355FF4F749144555F4FFA0137
:104D40004491802B8C931A8A198A4B8B7C8B85E03B
:104D5000FE017396DE011D9601900D928A95E1F792
:104D600086E0FE013D96DE01179601900D928A9530
:104D7000E1F7CE0107960E948D24882309F468CFBD
:104D800016E080915E0290912D028913A2CF679662
:104D90000FB6F894DEBF0FBECDBFDF91CF911F914C
:104DA0000F9108957F928F929F92AF92BF92CF9270
:104DB000DF92EF92FF920F931F93CF93DF93CDB7C4
:104DC000DEB72F970FB6F894DEBF0FBECDBF8E01B2
:104DD0000F5F1F4F8AE0D8011D928A95E9F789E994
:104DE000C82E81E0D82EF12CE12CAA24A394B12C5A
:104DF00029EA822E21E0922EF60181916F018F3FE8
:104E000009F443C0F894E82FE295EF70F0E021A197
:104E10008F70A50102C0440F551F8A95E2F7CA01A1
:104E2000922F982B91A392A18095892382A30E940F
:104E3000F00900C0E3EAF1E0712C31E021912F3F4D
:104E400009F47AC0A22FA295AF70B0E090968C9131
:104E500090E02F7002C0959587952A95E2F780FD26
:104E60006BC0832F782A330F8E169F0639F7F60111
:104E7000319780818F3F11F00E94F20950EA5A95D4
:104E8000F1F7F801EE0DFF1D70828FEFE81AF80AB6
:104E900095E0E916F10409F0AFCF4AE050E0B8011F
:104EA00080EA92E00E941A327C01892B41F08AE06C
:104EB000F801A0EAB2E001900D928A95E1F7109115
:104EC000AB02E114F104D1F181E0809366020E940B
:104ED000231C9093650280936402809164029091F8
:104EE00065020E94141C059778F0A0EAB2E0E12F59
:104EF000F0E0E055FD4F85EA92E02D9121938A176D
:104F00009B07D9F71092660281E090E0EF28D1F07C
:104F10002F960FB6F894DEBF0FBECDBFDF91CF91B5
:104F20001F910F91FF90EF90DF90CF90BF90AF90C7
:104F30009F908F907F90089580E094CF809166023B
:104F40008111CBCF0E945116D82EE091AB02DE0129
:104F50001B967D01882309F473C085E01D928A9514
:104F6000E9F70E2F10E000551D4F809199028A300D
:104F7000A0F542EF59E1B701C8010E940D16882340
:104F8000D9F14CE959E1B701C8010E940D168823F7
:104F900099F144E958E1B701C8010E940D16882330
:104FA00059F145E258E1B701C8010E940D16882366
:104FB00019F1109299028091AA0290E045E050E028
:104FC000B70180559D4F0E941A3221E020936D0257
:104FD000892B49F5D12C8D2D9BCF80916702909123
:104FE00068020E94141C843F914018F680916D0263
:104FF000811112C080E08CCF809199028F3F29F0FF
:105000008F5F809399028A30B0F20E94231C9093A4
:10501000680280936702EACF85E0F70111928A95D2
:10502000E9F710926D02A091AA02B0E0A055BD4F21
:1050300085E0FE013B9601900D928A95E1F7CBCF7A
:10504000F0E0E055FD4FF89485E0A1E8B2E0019072
:105050000D928A95E1F765E070E081E892E00E94A8
:105060001D09809380020E94F009F894E091C0022B
:10507000F0E0E354FD4F80818B878093870261E0ED
:1050800070E0C7010E941D09809386020E94F0090A
:10509000F894C0908802D0908902E0908A02F09043
:1050A0008B028091690290916A02A0916B02B0918B
:1050B0006C02C816D906EA06FB06D1F0C092690256
:1050C000D0926A02E0926B02F0926C020E9451163A
:1050D00081110EC00E94CB08C61AD70AE80AF90A45
:1050E000C0929A02D0929B02E0929C02F0929D02A2
:1050F0000E94F009F894809193028823A9F184FF1B
:1051000004C0909194029093FF0280FF0DC08091A3
:105110008C0280FF2CC09091D50391609093D503B1
:1051200060E086950E94B71C8091930281FF09C0C0
:1051300020E040918F0260918E0280918D020E944A
:10514000F8168091930282FF06C080919202882314
:1051500089F00E949C1C8091930283FF03C081E030
:105160008093F902109293020E94F00943CF0E94AB
:10517000F615DACF0E943809EECF1F921FB61F92A4
:1051800011248F939F93AF93BF938091E603811176
:1051900013C08091E7039091E803A091E903B091D7
:1051A000EA034196A11DB11D8093E7039093E803A4
:1051B000A093E903B093EA03BF91AF919F918F91C0
:1051C0001F901FBE1F901895CDB7DEB72C970FB656
:1051D000F894DEBF0FBECDBF84B7877F84BF0FB604
:1051E000F894A89580916000886180936000109287
:1051F00060000FBE80E890E00FB6F89480936100E5
:10520000909361000FBE85B7806885BF85B78068C1
:1052100085BF8EEE99E09093E7018093E6010E94AE
:105220003B070E9406088091E20084608093E200C0
:1052300078948091FB038823A1F01091E9001F70FE
:105240009091EC00892F817090FD80E8182B1092CE
:10525000E9008091E80083FD0E94960E1F70109374
:10526000E90082E084BD93E095BD9AEF97BD8093FD
:105270006E0010929A0210929B0210929C02109261
:105280009D020E94511680933C0180913C0188232D
:1052900009F4B2C21092600183E2809361010E941E
:1052A000511681110E94A82F80913C0180913C01F0
:1052B00095E0811190E09093AB0285E0891B80938B
:1052C000AA0209E911E03EE9E32E31E0F32ED8010C
:1052D0008D918D018F3F11F00E94F209E016F106C9
:1052E000B1F703EA11E029EAE22E21E0F22EF801FB
:1052F00081918F018F3F11F00E94F209E016F106B3
:10530000B1F78AE0E0EBF2E0DF01282F1D922A9549
:10531000E9F7E0EAF2E0DF011D928A95E9F790E013
:1053200080E00E943E32893E9E4F11F00E942F1A6B
:1053300082E090E00E9430328093EB020E941718C6
:1053400090939F0280939E0283E090E00E9430320F
:10535000682F70E090E080E00E949B0D0E94511643
:10536000811102C00E94AB2F0E945116882309F4BC
:1053700047C283E08093E60280FD44C280E88093C8
:105380000C040E94402E6DE070E087EF94E00E94D4
:105390001812892BE9F58091E60263E070E081FD47
:1053A00033C284EF94E00E941812892B89F56DE0D6
:1053B00070E084EE94E00E941812892B49F50E9457
:1053C000CB08605A75418F4F9F4F6093DA037093FB
:1053D000DB038093DC039093DD03EFE0F4E080E0F7
:1053E00092E0DF019C011D9221503040E1F7F093E3
:1053F0001606E09315068FEF9FEF90930E048093AF
:105400000D0481E08093DF038093DE031092E702B6
:105410008091AC0281113BC090E080E00E943E325E
:10542000893E9E4F21F00E942F1A0E94FF1788E0AC
:1054300090E00E9438326093D5037093D603809336
:10544000D7039093D8038091FE0283608093FE027D
:105450006E7F71F40E94FF1788E090E00E9438325E
:105460006093D5037093D6038093D7039093D803AA
:105470000E943F090E9438098091D50380FF04C033
:1054800060E086950E94B71C81E08093AC02809119
:105490003C01811106C084EF80934A0185EF80931F
:1054A000490120914A01A22FA295AF70B0E09196D8
:1054B0003C9191972F7081E090E0BC01022E01C0D9
:1054C000660F0A94EAF7462F4095432391964C9332
:1054D000919792963C919297362B92963C93929705
:1054E00040914901E42FE295EF70F0E031A14F7057
:1054F000042E01C0880F0A94EAF7982F9095932301
:1055000091A392A1892B82A390968C9190E002C0E6
:10551000959587952A95E2F7817020A130E002C029
:10552000359527954A95E2F792E020FF90E0892B88
:105530008093C10290913C0181E098279093C00232
:10554000891B8093AD028DE391E09093E3038093F8
:10555000E203DD24D3948091FB0300E112E1853066
:1055600009F49FC10E94D226E82E81110E94CB0827
:10557000A0EBB2E0ECEEF2E010E000E0A02ECD9067
:1055800081918C1509F4ADC18C25B12CFF24F394C5
:10559000982F9F2109F4A0C10E945116882399F0E9
:1055A000B982AA82CF2081E009F480E08B830E9437
:1055B000231C8160782F9D838C8349815A816B8164
:1055C0008D810E940426F801E451FD4F8081F82668
:1055D000F0828091FD02882309F463C08091FC026F
:1055E000E091D503E695E81BE093F802823009F0DC
:1055F0008FC1F0E0EE5EFA4FE4910E2F10E092EED4
:10560000A92E95E1B92E8091F902882361F01092BC
:10561000F9020E94931C9093F7028093F602109275
:10562000FB021092FA020E94931CE091F602F091A4
:10563000F7029C012E1B3F0B2F3F3F4790F5209117
:10564000BC022223B1F01092BC022091BA02309128
:10565000BB02821B930B8F3F9F4758F4205D3A4853
:105660003093BB022093BA028091FE02886080933F
:10567000FE028090FA029090FB02E00FF11FF0937F
:10568000F702E093F60286EF92E0F501099580912A
:10569000FA029091FB02892B21F4892811F0D09213
:1056A000BC028091C102E82FEE0FEE0F90914A01EB
:1056B000A92FA295AF70B0E090962C9130E09F702A
:1056C00002C0359527959A95E2F72170332790917E
:1056D0004901A92FA295AF70B0E090964C9150E08F
:1056E0009F7002C0559547959A95E2F7CA0181705F
:1056F000992740FF02C082E090E0822B8E2B80939E
:10570000C1021091C0028F70E82FF0E0E755FE4F04
:1057100080819091BF02890F8093BF02F12C82306B
:105720006CF0E12FF0E0E354FD4F80818F5F8083C8
:1057300061E0812F0E94BA16FF24F3948091BF028A
:105740008F3F6CF4E12FF0E0E354FD4F80818150F6
:10575000808360E0812F0E94BA16FF24F394809129
:10576000BF02082E000C990B62E070E00E94973196
:105770008093BF02F1100E94D10B8091DF03882338
:1057800051F18091E8029091E9020E94141CC297A5
:1057900008F018C120910D0430910E042115310537
:1057A00009F085C18091DE038823A9F00E94CB080F
:1057B0000091DA031091DB032091DC033091DD03CB
:1057C000601B710B820B930B6F3F7F4F8F4F9F4777
:1057D00010F40E944812E11001C0F1100E946312FF
:1057E0000E9474169091EA02891709F4B4CE0E94BF
:1057F00074168093EA02AFCE83E2809360014DCDB0
:1058000080E0B8CD80E2BBCD81EF94E0CCCD80913B
:10581000FB03843009F435C00E9438098091AF023F
:10582000811109C0D092AF028091D503817080931D
:10583000AE020E94F6150E9448121092E60388E11B
:1058400090E0A0E40FB6F894A895809360000FBE96
:10585000A093600083B7817F846083BF83B781603A
:1058600083BF7894889583B78E7F83BF0FB6F894F3
:10587000A89580916000886180936000109260001C
:105880000FBE8091FA03882361F00E94D226E0EBDC
:10589000F2E081918111DEC12AEB32E02E173F0741
:1058A000C1F78091FB03853009F4B1CF0E948B0EC4
:1058B0000E9474161092AF028091AE02882349F0C4
:1058C0008091D50381608093D50360E086950E9426
:1058D000B71C0E949C1C46CEB394FF0C36E0B3125A
:1058E00057CE0F5F1F4F0A30110509F047CE8FEFDB
:1058F0008E838F8318860E94231C8160782F9A875D
:1059000089874E815F8168858A850E94042661CEE1
:10591000863059F4F0E0E15FFA4FE4910E2F10E089
:1059200082EDA82E85E1B82E6ECE893061F4E69521
:10593000F0E0E45FFA4FE4910E2F10E0B3E2AB2EFB
:10594000B5E1BB2E60CE8F3061F4E695F0E0E75F05
:10595000FA4FE4910E2F10E0AAE8AA2EA4E1BA2E85
:1059600052CE853159F4F0E0EA5FFA4FE4910E2F00
:1059700010E0F3E0AF2EF4E1BF2E45CE08E210E0D8
:1059800063E7A62E63E1B62E883109F43CCE83325C
:1059900049F4E4E0F5E005911491E9E7AE2EE5E184
:1059A000BE2E31CE04EF11E076E3A72E73E1B72EC1
:1059B000843209F428CE00ED17E056ECA52E58E00D
:1059C000B52E21CE0E94231C9093E9028093E80219
:1059D0008FE094E090931606809315060E9451166E
:1059E000882309F461C08AE695E00E94D3118FE50F
:1059F00095E00E9413128EE595E00E9413126091CB
:105A0000C2027091C3028091C4029091C5020E94AB
:105A10003E0E813029F1882329F0823021F188E47B
:105A200095E002C089E595E00E94131285E495E0B7
:105A30000E94D3118FE395E00E9413126091080435
:105A40007091090480910A0490910B040E943E0E0B
:105A5000883000F5E82FF0E0E455FD4C0C94CD3192
:105A600084E595E0E1CF8EE495E0DECF89E395E033
:105A70000E94D31113C083E395E0FACF8DE295E045
:105A8000F7CF88E295E0F4CF82E295E0F1CF8CE1A8
:105A900095E0EECF86E195E00E9413128091DF033E
:105AA000882309F47FCE76CE8DE695E0E1CF809114
:105AB000E70261E070E0811175CE082F10E02B0144
:105AC000082E02C0440C551C0A94E2F7A901442197
:105AD0005521452B09F448C09091E60290FD46C03F
